:1000000012EF13F068202D2073657420686F7572ED
:100010000A006D202D20736574206D696E757465FE
:100020000A002875202D2075702C2064202D206456
:100030006F776E2C2073202D20736574290A0000C1
:1000400073617665640A000073617665640A000076
:10005000536972656E652077696C6C2062652061FA
:100060006374697665202564206D696E206166740D
:10007000657220616C61726D0A0053657420746F43
:1000800020312D316D696E20322D326D696E203335
:100090002D356D696E0A0000414C41524D206F6E46
:1000A000206C696E652025640A00253032643A258B
:1000B0003032643A2530326420536972656E6520AF
:1000C0004F4E0A00253032643A253032643A2530EA
:1000D000326420536972656E65204F46460A0000FF
:1000E0004C696E6531204F4E0A004C696E653120B7
:1000F0004F46460A00004C696E6532204F4E0A009A
:100100004C696E6532204F46460A00004C696E65A8
:1001100033204F4E0A004C696E6533204F46460A25
:1001200000004C696E6534204F4E0A004C696E65C4
:1001300034204F46460A000031202D204C696E6560
:10014000204F4E2F4F46460A000032202D204C698A
:100150006E652064656C61790A003E4C696E6520AD
:100160004F4E2F4F46460A004C696E65202564208D
:1001700069732073657420746F2000004F4E0A006D
:100180004F46460A000053657420746F20312D4F8E
:100190004E20322D4F46460A0000536574204F4EC4
:1001A0000A00536574204F46460A00003E4C696EB3
:1001B000652064656C61790A00004C696E652025D4
:1001C000642064656C617920256420736563200A6E
:1001D000000053657420746F20312D3073656320E7
:1001E000322D333073656320332D36307365630AE7
:1001F000000031202D206C6973740A0032202D20FC
:1002000061646420636172640A0033202D2072658A
:100210006D6F766520636172640A00002564203A80
:100220002025640A000077616974696E6720666F33
:1002300072206E6577206361726420286F7220617E
:100240006E79206B657920746F2061626F727429FA
:100250002E2E2E2E0A004361726420776173206176
:100260006464656420686572650A000043617264B5
:10027000202564206164646564206F6E20256420FD
:10028000706C6163650A00004E6F7420656D707458
:100290007920737061636520666F72206E657720C8
:1002A000636172640A002564203A2025640A000014
:1002B000496420746F2072656D6F76653A0A0A0092
:1002C00072656D6F7665640A000057726F6E672005
:1002D00069640A000A4D65737361676520546F2075
:1002E00043414E3A2025642025642025642025645E
:1002F000202564202564202564202564200A000030
:100300000A526563697069656E742049643A000039
:100310000A206D73673A00000A53656E6420792FD6
:100320006E000A6F6B000A2D2D2D2D2D2D2D2D2DDC
:1003300043414E20544F4F4C532D2D2D2D2D2D2DFF
:100340002D2D0A0031202D20646973636F7665724C
:1003500020646576696365730A0032202D20736519
:100360006E64206D657373616765206F6E206361D5
:100370006E0A00003E64657669636573206F6E20C7
:1003800043414E3A0A003E4E4F5420494D504C4591
:100390004D454E5445440A000A3E536F6674206C26
:1003A00069676874206D6F64756C6174696F6E2025
:1003B000666F72204C4544000A4C6967687420736C
:1003C000746174696F6E2049643A00000A61637455
:1003D00069766174696F6E20792F6E000A6F6B0009
:1003E0000A6C69676874206F6E206D6F74696F6E38
:1003F00020792F6E00000A6F6B000A2D2D2D2D4CD9
:100400004947485453544154494F4E2041444D4963
:100410004E2D2D2D2D2D0A0031202D20736F667449
:10042000206C696768740A0032202D206C69676847
:1004300074206F6E206D6F74696F6E0A00000A4140
:100440006C61726D206F6B0A0A00756E61726D656A
:10045000640A00003E6C696E6573206175746F20DC
:10046000636F6E6669670A003E6C696E6573206330
:100470006F6E6669670A00003E6C696E6573206D79
:100480006F6E69746F720A003E736972656E6520E3
:10049000636F6E6669670A003E63617264730A0087
:1004A0003E74696D650A00003E61726D65640A0004
:1004B0000A2D2D2D2D2D2D2D2D2D2D2D2D2D2D2D8F
:1004C0002D2D2D2D2D2D2D2D2D2D2D2D0A004D6158
:1004D000696E206D656E7520616C61726D2063655B
:1004E0006E7472616C0A00002D2D2D2D2D2D2D2D79
:1004F0002D2D2D2D2D2D2D2D2D2D2D2D2D2D2D2D2C
:100500002D2D2D0A0A0031202D206C696E65732077
:100510006175746F20636F6E6669670A0000322030
:100520002D206C696E657320636F6E6669670A00C3
:1005300033202D206C696E6573206D6F6E69746F4A
:10054000720A000034202D20736972656E65206385
:100550006F6E6669670A000035202D206361726442
:10056000730A000036202D2074696D650A0037205B
:100570002D2061726D0A000038202D2043414E204D
:10058000746F6F6C730A000039202D204C69676806
:100590007453746174696F6E2061646D696E0A00D2
:1005A00046697273742070726573732053455420CA
:1005B000627574746F6E20746F2064697361726DFC
:1005C0000A000A4D6573736167652046726F6D207E
:1005D00043414E3A2025642025642025642025646B
:1005E000202564202564202564202564200A00003D
:1005F000616C61726D206F666620616E6420756E3D
:1006000061726D65640A0000756E61726D65640AE1
:10061000000061726D65640A0000756E6B6E6F7725
:100620006E20636172640A00EA6A300EE96EEF5070
:100630000DE0020E016E006A002EFED7012EFBD7E0
:10064000970E006E002EFED7EF2EF3D71200090092
:10065000F5520DE0F6CF3BF0F7CF3CF0F5509EA8F9
:10066000FED7AD6E3BC0F6FF3CC0F7FFF0D71200DF
:10067000929C898C929E898E2FC030F0D5DF929CFF
:10068000899C929E899E12002F38700B006ED89024
:1006900000361F0E6F1400106F6E6ECF00F0003A20
:1006A0000030070B2F5CF9E11200C00E0E0143155C
:1006B0000409436F3F0E4315436FF80E44150209BA
:1006C000446FC70E44152809446F449D448FF80EAB
:1006D00045150509456F459D000107EF04F04F5290
:1006E00052E049C0E9FF4AC0EAFF4BC0EFFF495062
:1006F000D8B44A06490649C0E9FF4AC0EAFF4CC0DF
:10070000EFFF4950D8B44A06490649C0E9FF4AC03C
:10071000EAFF4D50030BEF6E49C0E9FF4AC0EAFF04
:100720004DC000F0003600360036F80E00160050BE
:10073000E00BEF10EF6E49C0E9FF4AC0EAFFEF504F
:100740000809EF6E4950D8B44A06490649C0E9FF86
:100750004AC0EAFF4DC000F0003A0032070E001612
:100760000050070BEF6E49C0E9FF4AC0EAFF4EC0D8
:1007700000F0003600360036F80E00160050F80B78
:10078000EF10EF6E3FD049C0E9FF4AC0EAFFEF6AC1
:100790004950D8B44A06490649C0E9FF4AC0EAFFB1
:1007A000EF6A4950D8B44A06490649C0E9FF4AC031
:1007B000EAFF4BC000F0003A0036E00E0016005091
:1007C000E00BEF6E4950D8B44A06490649C0E9FF2C
:1007D0004AC0EAFF4BC000F00032003200321F0E68
:1007E000001600501F0BEF6E49C0E9FF4AC0EAFF38
:1007F0004CC000F0003A0036E00E00160050E00B4E
:10080000EF10EF6E1200040E2F6E3EDF4ED7066A19
:10081000606A9F0E6014606E608460CF30FF709AD3
:100820007098709E709C0E0E4A6EFB0E496E4E6A5A
:100830004D6A4C6A4B6A010E4F6E51DF0E0E4A6EC6
:10084000E30E496E4E6A4D6A4C6A4B6A010E4F6E5A
:1008500046DF0E0E4A6EE70E496E4E6A4D6A4C6ACE
:100860004B6A010E4F6E3BDF0E0E4A6E49684E6AB0
:100870004D6A4C6A4B6A010E4F6E31DF0E0E4A6EA6
:10088000EB0E496E4E6A4D6A4C6A4B6A010E4F6E12
:1008900026DF0E0E4A6EEF0E496E4E6A4D6A4C6AA6
:1008A0004B6A010E4F6E1BDF0E0E4A6EF30E496E41
:1008B0004E6A4D6A4C6A4B6A010E4F6E10DF0E0E87
:1008C0004A6EF70E496E4E6A4D6A4C6A4B6A010ECB
:1008D0004F6E05DF0E0E4A6E4B0E496E4E6A4D6A24
:1008E0004C6A4B6A010E4F6EFADE0E0E4A6E4F0EC8
:1008F000496E4E6A4D6A4C6A4B6A010E4F6EEFDECE
:100900000E0E4A6E530E496E4E6A4D6A4C6A4B6A21
:10091000010E4F6EE4DE0E0E4A6E570E496E4E6AA1
:100920004D6A4C6A4B6A010E4F6ED9DE0E0E4A6E4E
:100930005B0E496E4E6A4D6A4C6A4B6A010E4F6EF1
:10094000CEDE0E0E4A6E5F0E496E4E6A4D6A4C6ADE
:100950004B6A010E4F6EC3DE0E0E4A6E630E496E79
:100960004E6A4D6A4C6A4B6A010E4F6EB8DE0E0E2F
:100970004A6E670E496E4E6A4D6A4C6A4B6A010EAA
:100980004F6EADDE0E0E4A6E6B0E496E4E6A4D6AAC
:100990004C6A4B6A010E4F6EA2DE0E0E4A6E6F0E4F
:1009A000496E4E6A4D6A4C6A4B6A010E4F6E97DE75
:1009B0009350FB0B0809936E2F6A66DE46EF13F027
:1009C000080E016E00D08B96949600D0000035364C
:1009D0008B98D8B09488D8A09498948682A6FED795
:1009E000012EF0D700D08B9694960000948800D00A
:1009F000000000D00000948682A6FED7016A00D0D5
:100A0000000082B801808B9694968B98949812007F
:100A1000080E336E00C034F0948800D00000948635
:100A200082A6FED782B8D88082A8D890013600D09E
:100A300094968B96332EF0D7948800D000008B9834
:100A40003450D8A494980000948682A6FED700D093
:100A50008B96949600D000008B98949853EF05F0F5
:100A6000948800D0948600D0000082A6FED78B9890
:100A7000949800D08B969496D00E356EA1DF30C03E
:100A800035F09EDF948800D0948600D0000082A6C6
:100A9000FED78B98949800D08B969496D10E356E95
:100AA0008FDF006AB5D701C031F0949800009486BA
:100AB00082A6FED700D000D00000948800D031C0BC
:100AC00001F012003138006E0F0E001600500A0DB2
:100AD000F3CF32F031500F0B3224016E1200306A26
:100AE000BFDF01C030F001C031F0ECDF01C026F003
:100AF000010E306EB5DF01C030F001C031F0E2DF31
:100B000001C027F0020E306EABDF01C030F001C033
:100B100031F0D8DF01C028F012003F50016A3E5C7E
:100B200003E23EC000F00CD0006A080E406E3E3674
:100B300000363F50005CD8B0006E0136402EF7D72B
:100B40001200200E31A8300E326E30C000F030AEF0
:100B500008D0001E002A00C030F02D0E326E318EFB
:100B60003180015030C03EF0640E3F6ED6DF00C0D1
:100B700030F0300E0124336E30C03EF00A0E3F6E6E
:100B8000CCDF300E0024356E300E0124346E32C0BE
:100B900000F0300E335C04E0318231BE318412D07B
:100BA00031B410D032C033F031B204D0300E345CE6
:100BB00004E0318031BE318205D0D8A43180D8B470
:100BC00033C034F031B405D031B207D031B009D0E0
:100BD0000CD032509EA8FED7AD6E33509EA8FED7E3
:100BE000AD6E34509EA8FED7AD6E35509EA8FED790
:100BF000AD6E12000900F6CF39F0F7CF3AF0F5509C
:100C00009EA8FED7AD6E39C0F6FF3AC0F7FF382E6A
:100C1000F1D7120094908B80296A2A6A60DF28C07D
:100C200030F0010E316E8DDF3A0E9EA8FED7AD6E0C
:100C300027C030F0010E316E84DF3A0E9EA8FED739
:100C4000AD6E26C030F0010E316E7BDFB80EF66E51
:100C5000000EF76E0B0E386ECDDF1200326A325086
:100C600007080AE3036A3250160FE96E000E0320EC
:100C7000EA6EEF6A322AF3D712000F0E476E660E45
:100C8000466E0F0120B70DD0065205E1F10E6F142C
:100C900008096F6E04D0E00E72140309726E486A80
:100CA00067D010B70ED0065205E1F10E6F14060999
:100CB0006F6E04D0E00E72140409726E010E486E5D
:100CC00057D000B70ED0065205E1F10E6F1404099B
:100CD0006F6E04D0E00E72140509726E020E486E3B
:100CE00047D00E0180B709D07DA507D0E00E721461
:100CF0001209726E030E486E3AD090B709D07DA7E4
:100D000007D0E00E72141309726E040E486E2FD0D5
:100D1000A0B709D07DA907D0E00E72141409726E35
:100D2000050E486E24D0B0B709D07DAB07D0E00ED9
:100D300072141509726E060E486E19D0C0B709D02C
:100D40007DAD07D0E00E72141609726E070E486E64
:100D50000ED0D0B709D07DAF07D0E00E72141709BE
:100D6000726E080E486E03D0000E016E43D00F0164
:100D70004250030B006EFC0E60140010606E0F0EEC
:100D80004A6E640E496E3EC04EF03DC04DF03CC010
:100D90004CF03BC04BF043C04FF00001A0DC41C021
:100DA00065FF659C44B0658C456A4150455C14E222
:100DB0003FC0E9FF40C0EAFFEFCF4BF047C0EAFF7A
:100DC00046C0E9FF4BC0EFFF462AD8B4472A3F2A66
:100DD000D8B4402A452AE9D76086065204E1F10ECC
:100DE0006F146F6E04D0E00E72141009726E010E53
:100DF000016E0E0100011200200E39A8300E3A6E6D
:100E000038C000F038AE08D0001E002A00C038F00C
:100E10002D0E3A6E398E3980015038C03EF0640E86
:100E20003F6E7BDE00C038F0300E01243B6E38C0D0
:100E30003EF00A0E3F6E71DE300E00243D6E300E25
:100E400001243C6E3AC000F0300E3B5C04E0398275
:100E500039BE398412D03AC03BF0200E3A6E300EC3
:100E60003C5C04E0398039BE398207D0D8A439808F
:100E700004E13BC03CF0200E3B6E39B405D039B2E2
:100E800007D039B009D00CD03A509EA8FED7AD6E2D
:100E90003B509EA8FED7AD6E3C509EA8FED7AD6ECF
:100EA0003D509EA8FED7AD6E1200D8DE610E166EC4
:100EB00007C017F03E6A3D6A3C6A010E3B6E406A0D
:100EC000160E3F6E080E416E010E426E436E446A6E
:100ED000D4DED40EF66E020EF76E110E386E8ADE78
:100EE00016C038F0180E396E87DF200E9EA8FED788
:100EF000AD6E17C038F0180E396E7EDF200E9EA83A
:100F0000FED7AD6E18C038F0180E396E75DF200EA2
:100F10009EA8FED7AD6E19C038F0180E396E6CDF82
:100F2000200E9EA8FED7AD6E1AC038F0180E396E8E
:100F300063DF200E9EA8FED7AD6E1BC038F0180EE2
:100F4000396E5ADF200E9EA8FED7AD6E1CC038F059
:100F5000180E396E51DF200E9EA8FED7AD6E1DC053
:100F600038F0180E396E48DF200E9EA8FED7AD6E01
:100F70000A0E9EA8FED7AD6E120094908B90AFDD46
:100F800028C030F0010E316EDCDD3A0E9EA8FED78F
:100F9000AD6E27C030F0010E316ED3DD3A0E9EA843
:100FA000FED7AD6E26C030F0010E316ECADDD20E16
:100FB000F66E000EF76E0C0E386E1CDE12002AC0A4
:100FC0003EF03C0E3F6EA9DD01C02FF0F2CF30F0B5
:100FD000F29E756A200E746E7F9C7F9E7F80735098
:100FE00030BEF28E2F5C05E1C8DF030E076E3C0EAB
:100FF0002A262AC03EF03C0E3F6E8FDD01C02FF046
:10100000F2CF30F0F29E756A200E746E7F9C7F9E48
:101010007F80735030BEF28E2F5C0FE2040E2F6E75
:10102000C80E306E14EC03F02F2EFAD758DD265080
:10103000295C03E026C029F02A2A8CEF13F008501F
:10104000075C21E007C008F0F250006EF29E756A5E
:10105000210E746E07C073FF7F9C7F9E7F840F01FB
:10106000550E7E6EAA0E7E6E7F827FB2FED77F9473
:101070000050F212000119DF0750020801E1CADD39
:10108000075201E17ADF8EEF13F0929C898C2FC01A
:1010900030F014EC03F0929C899C5EEF08F0929E75
:1010A000898E2FC030F014EC03F0929E899E6BEF76
:1010B00008F0072C0BD0640E2F6EE7D7040E2F6EAE
:1010C000C80E306E14EC03F02F2EFAD707520BE146
:1010D000640E2F6EE4D7040E2F6EC80E306E14EC23
:1010E00003F02F2EFAD70750020804E1F40E2F6EFA
:1010F00038EC03F00750030804E1F40E2F6E38ECCF
:1011000003F090EF13F0928080A010D0F2CF30F077
:10111000F29E756A746A7F9C7F9E7F80735030BE9A
:10112000F28E010803E1010E016E3ED0928280A290
:1011300011D0F2CF30F0F29E756A010E746E7F9C72
:101140007F9E7F80735030BEF28E010803E1020E55
:10115000016E2AD0928480A411D0F2CF30F0F29E9A
:10116000756A020E746E7F9C7F9E7F80735030BEC6
:10117000F28E010803E1030E016E16D0928680A65E
:1011800011D0F2CF30F0F29E756A030E746E7F9C20
:101190007F9E7F80735030BEF28E010803E1040E03
:1011A000016E02D0000E016E1200306A010E2F5C3B
:1011B000FB0F48E2050F25EF09F0F2CF31F0F29E68
:1011C000756A050E746E7F9C7F9E7F80735031BE62
:1011D000F28E306E37D0F2CF31F0F29E756A060E85
:1011E000746E7F9C7F9E7F80735031BEF28E306E16
:1011F00029D0F2CF31F0F29E756A070E746E7F9C93
:101200007F9E7F80735031BEF28E306E1BD0F2CF46
:1012100031F0F29E756A080E746E7F9C7F9E7F800F
:10122000735031BEF28E306E0DD0F2CF31F0F29E9F
:10123000756A090E746E7F9C7F9E7F80735031BEED
:10124000F28E306E30C001F01200E824F76AF736F3
:10125000650FF66E120EF7220A00F550FA6E0800BE
:10126000F550F96EBA11D611F2110E122A129EAA79
:10127000FED7ABCF04F0AECF01F004A202D0AB9802
:10128000AB881200F250006EF29E756A746A736A3F
:101290007F9C7F9E7F840F01550E7E6EAA0E7E6E10
:1012A0007F827FB2FED77F940050F212F2CF00F01F
:1012B000F29E756A010E746E736A7F9C7F9E7F84B6
:1012C000550E7E6EAA0E7E6E7F827FB2FED77F9411
:1012D0000050F212F2CF00F0F29E756A020E746EA8
:1012E000736A7F9C7F9E7F84550E7E6EAA0E7E6EF3
:1012F0007F827FB2FED77F940050F212F2CF00F0CF
:10130000F29E756A030E746E736A7F9C7F9E7F8463
:10131000550E7E6EAA0E7E6E7F827FB2FED77F94C0
:101320000050F212928080A01DD0F2CF00F0F29E09
:10133000756A746A010E736E7F9C7F9E7F84550E62
:101340007E6EAA0E7E6E7F827FB2FED77F940050A3
:10135000F212E00EF66E000EF76E000127EC03F0BD
:101360001BD00F01F2CF00F0F29E756A746A736AA7
:101370007F9C7F9E7F84550E7E6EAA0E7E6E7F823E
:101380007FB2FED77F940050F212EA0EF66E000E86
:10139000F76E000127EC03F0928280A21DD0F2507C
:1013A000006EF29E756A010E746E736E7F9C7F9E56
:1013B0007F840F01550E7E6EAA0E7E6E7F827FB2F5
:1013C000FED77F940050F212F60EF66E000EF76E06
:1013D000000127EC03F01CD0F250006EF29E756AFB
:1013E000010E746E736A7F9C7F9E7F840F01550E81
:1013F0007E6EAA0E7E6E7F827FB2FED77F940050F3
:10140000F212000EF66E010EF76E000127EC03F0EB
:10141000928480A41ED0F250006EF29E756A020E75
:10142000746E010E736E7F9C7F9E7F840F01550E3C
:101430007E6EAA0E7E6E7F827FB2FED77F940050B2
:10144000F2120C0EF66E010EF76E000127EC03F09F
:101450001CD0F250006EF29E756A020E746E736AB2
:101460007F9C7F9E7F840F01550E7E6EAA0E7E6E3E
:101470007F827FB2FED77F940050F212160EF66E76
:10148000010EF76E000127EC03F0928680A61ED0B5
:10149000F250006EF29E756A030E746E010E736E4A
:1014A0007F9C7F9E7F840F01550E7E6EAA0E7E6EFE
:1014B0007F827FB2FED77F940050F212220EF66E2A
:1014C000010EF76E000127EC03F01CD0F250006E05
:1014D000F29E756A030E746E736A7F9C7F9E7F8492
:1014E0000F01550E7E6EAA0E7E6E7F827FB2FED7F2
:1014F0007F940050F2122C0EF66E010EF76E000172
:1015000027EC03F07EEF14F0380EF66E010EF76E46
:1015100027EC03F04A0EF66E010EF76E27EC03F08F
:10152000A6DE01C02FF02F50310A04E0030AD8B420
:1015300085D019D15A0EF66E010EF76E27EC03F026
:10154000306A30500408D8A078D0680EF66E010ECC
:10155000F76E050E386EFAEC05F030C038F0180E54
:10156000396E4ADC6F0EF66E010EF76E0B0E386E9A
:10157000FAEC05F0F2CF32F0F29E756A30C074FFDB
:101580007F9C7F9E7F80735032BEF28E010807E100
:101590007C0EF66E010EF76E27EC03F006D0800E7F
:1015A000F66E010EF76E27EC03F0860EF66E010E56
:1015B000F76E27EC03F05BDE01C02FF02F503108EF
:1015C0001EE1F250006EF29E756A30C074FF010E8B
:1015D000736E7F9C7F9E7F840F01550E7E6EAA0ED8
:1015E0007E6E7F827FB2FED77F940050F2129A0EF9
:1015F000F66E010EF76E000127EC03F01CD0F250DE
:10160000006EF29E756A30C074FF736A7F9C7F9E85
:101610007F840F01550E7E6EAA0E7E6E7F827FB292
:10162000FED77F940050F212A20EF66E010EF76EF6
:10163000000127EC03F0302A84D795D0AC0EF66E6B
:10164000010EF76E27EC03F0050E316E31500808DD
:10165000D8A089D0F2CF32F0F29E756A31C074FF03
:101660007F9C7F9E7F80735032BEF28E336EBA0EA7
:10167000F66E010EF76E050E386EFAEC05F031C00D
:1016800038F0180E396EFCEC06F0C10EF66E010E45
:10169000F76E070E386EFAEC05F033C038F0180E0E
:1016A000396EFCEC06F0CA0EF66E010EF76E060EF1
:1016B000386EFAEC05F0D20EF66E010EF76E27ECDE
:1016C00003F0D5DD01C02FF02F50310816E1F250A4
:1016D000006EF29E756A31C074FF736A7F9C7F9EB4
:1016E0007F840F01550E7E6EAA0E7E6E7F827FB2C2
:1016F000FED77F940050F21200012F50320817E1FC
:10170000F250006EF29E756A31C074FF1E0E736E49
:101710007F9C7F9E7F840F01550E7E6EAA0E7E6E8B
:101720007F827FB2FED77F940050F21200012F50CB
:10173000330817E1F250006EF29E756A31C074FFF3
:101740003C0E736E7F9C7F9E7F840F01550E7E6ED4
:10175000AA0E7E6E7F827FB2FED77F940050F21277
:101760000001312A73D77EEF14F0928080A005D05B
:10177000310E9EA8FED7AD6E04D0300E9EA8FED7C7
:10178000AD6E928280A205D0310E9EA8FED7AD6EBE
:1017900004D0300E9EA8FED7AD6E928480A405D0F2
:1017A000310E9EA8FED7AD6E04D0300E9EA8FED797
:1017B000AD6E928680A605D0310E9EA8FED7AD6E86
:1017C00004D0300E9EA8FED7AD6E0A0E9EA8FED79E
:1017D000AD6E040E2F6EC80E306E14EC03F02F2E7B
:1017E000FAD79EAAC2D77EEF14F0F2CF30F0F29E65
:1017F000756A200E746E7F9C7F9E7F80735030BE12
:10180000F28E316E500EF66E000EF76E160E386EBA
:10181000FAEC05F031C038F0180E396EFCEC06F029
:10182000680EF66E000EF76E110E386EFAEC05F0CB
:101830007A0EF66E000EF76E27EC03F018DD01C08D
:101840002FF02F50310817E1F250006EF29E756AAA
:10185000200E746E010E736E7F9C7F9E7F840F013D
:10186000550E7E6EAA0E7E6E7F827FB2FED77F946B
:101870000050F21200012F50320817E1F250006EB2
:10188000F29E756A200E746E020E736E7F9C7F9EB0
:101890007F840F01550E7E6EAA0E7E6E7F827FB210
:1018A000FED77F940050F21200012F50330816E14A
:1018B000F250006EF29E756A200E746E050E736E05
:1018C0007F9C7F9E7F840F01550E7E6EAA0E7E6EDA
:1018D0007F827FB2FED77F940050F21200017EEF2C
:1018E00014F04A6A496A486A476A45C04CF044C0E5
:1018F0004BF04652D8B489D04BC0E9FF4CC0EAFF48
:101900004A6A496A486AEFCF47F04B50D8B44C0650
:101910004B064BC0E9FF4CC0EAFFEF504F6A4E6ADE
:101920004D6E006A005047124D5048124E504912F9
:101930004F504A124B50D8B44C064B064BC0E9FFEF
:101940004CC0EAFFEF50506A4F6A4E6A4D6E030E6C
:101950004D164E6A4F6A506A006A016A005047127B
:10196000015048124D5049124E504A124BC0E9FFE7
:101970004CC0EAFFEF50506A4F6A4E6A4D6EE00E5F
:101980004D164E6A4F6A506A006A4D34016E4E34ED
:10199000026E4F34036E01360236033601360236CC
:1019A0000336013602360336013602360336E00EC0
:1019B00001160050471201504812025049120350BC
:1019C0004A124B50D8B44C064B064BC0E9FF4CC0F2
:1019D000EAFFEF504E6A4D6E006A016A4D34026EA6
:1019E0004E34036E023603360236033602360336B1
:1019F00002360336E00E021600504712015048121C
:101A00000250491203504A1253D0020E4B5E000E90
:101A10004C5A4BC0E9FF4CC0EAFFEF50506A4F6A86
:101A20004E6A4D6EE00E4D164E6A4F6A506A503047
:101A30004A6E4F30496E4E30486E4D30476E4A32D6
:101A40004932483247324A324932483247324A32C2
:101A50004932483247324A32493248324732070E19
:101A60004A164B50D8B44C064B064BC0E9FF4CC04D
:101A7000EAFFEF50506A4F6A4E6A4D6E4D34006E69
:101A80004E34016E4F34026E5034036E0036013610
:101A9000023603360036013602360336F80E0016DB
:101AA00000504712015048120250491203504A1286
:101AB00047C000F048C001F049C002F04AC003F03E
:101AC00012002F6A306AF20EF66E010EF76E27ECE6
:101AD00003F0FC0EF66E010EF76E27EC03F00A0E13
:101AE000F66E020EF76E27EC03F037EC09F001C03A
:101AF00031F03150310A06E0030A34E0010AD8B46B
:101B000018D27ED2100E326E325019082AE3100E0F
:101B1000325C356EF2CF36F0F29E756A32C074FFD9
:101B20007F9C7F9E7F80735036BEF28E376E35C0AD
:101B300038F0180E396EFCEC06F01E0EF66E020E32
:101B4000F76E030E386EFAEC05F037C038F0180E59
:101B5000396EFCEC06F00A0E9EA8FED7AD6E322A56
:101B6000D3D74ED2260EF66E020EF76E27EC03F098
:101B70002F2C01D0DDD19EBADBD1366A160E356E20
:101B800060AE1FD0065204E1F10E6F146F6E04D0E8
:101B9000E00E72141009726E0B6A065208E009908A
:101BA00071BC0980719C60501F0B0A6E09D00990AE
:101BB00071BE0980719E60A403D00A6A60B00A2ACF
:101BC00093D00F0130AF1FD0065205E1F10E6F1414
:101BD0000A096F6E04D0E00E72141109726E010EC4
:101BE0000B6E065208E0099071BC0980719C30515F
:101BF0001F0B0A6E07D0099071BC0980719C30518F
:101C0000070B0A6E70D00E0180AF10D07DB50ED0DC
:101C1000E00E72141209726E020E0B6E099071BC06
:101C20000980719C80511F0B0A6E5DD090AF10D05F
:101C30007DB70ED0E00E72141309726E030E0B6E98
:101C4000099071BC0980719C90511F0B0A6E4BD09A
:101C5000A0AF10D07DB90ED0E00E72141409726ED0
:101C6000040E0B6E099071BC0980719CA0511F0B72
:101C70000A6E39D0B0AF10D07DBB0ED0E00E72141A
:101C80001509726E050E0B6E099071BC0980719C6E
:101C9000B0511F0B0A6E27D0C0AF10D07DBD0ED043
:101CA000E00E72141609726E060E0B6E099071BC6E
:101CB0000980719CC0511F0B0A6E15D0D0AF10D097
:101CC0007DBF0ED0E00E72141709726E070E0B6EF8
:101CD000099071BC0980719CD0511F0B0A6E03D012
:101CE000000E016E84D0000165500F0B156E0C9034
:101CF00065BC0C800C9262B60C82000E0CB2010E18
:101D00003A6E0F0E456E640E446E3AC046F0E9DD41
:101D100003C010F002C00FF001C00EF000C00DF0C3
:101D20000F0E396E660E386E376A1550375C14E246
:101D300038C0E9FF39C0EAFFEFCF3CF036C0EAFF18
:101D400035C0E9FF3CC0EFFF352AD8B4362A382A1F
:101D5000D8B4392A372AE9D70B500FE0010A14E02A
:101D6000030A17E0010A1AE0070A1DE0010A20E051
:101D7000030A23E0010A26E029D0609E065202E011
:101D8000779201D0779022D00F01309F7792000197
:101D90001DD00E01809F7792000118D00E01909FF8
:101DA0007792000113D00E01A09F779200010ED010
:101DB0000E01B09F7792000109D00E01C09F77926B
:101DC000000104D00E01D09F779200010C9477BEE1
:101DD0000C84779E065204E1F10E6F146F6E04D0EE
:101DE000E00E72141009726E010E016E0E010152A6
:101DF000D8B49CD00D501408D8A498D00E52D8A4B2
:101E000095D00F52D8A492D01052D8A48FD016508B
:101E10006308D8A48BD0100E336E33501908D8A0A5
:101E200079D0F2CF35F0F29E756A33C074FF7F9C93
:101E30007F9E7F80735035BEF28E175C0BE1560E8D
:101E4000F66E020EF76E000127EC03F0010E306E05
:101E50000E0160D0F2CF35F0F29E756A33C074FF88
:101E60007F9C7F9E7F80735035BEF28EFF080EE010
:101E7000F2CF36F0F29E756A33C074FF7F9C7F9E6E
:101E80007F80735036BEF28E000A42E1F250006E3F
:101E9000F29E756A33C074FF17C073FF7F9C7F9EEC
:101EA0007F840F01550E7E6EAA0E7E6E7F827FB2FA
:101EB000FED77F940050F212100E335C356E6C0E1C
:101EC000F66E020EF76E050E386E0001FAEC05F0A4
:101ED00017C038F0180E396EFCEC06F0730EF66E73
:101EE000020EF76E0A0E386EFAEC05F035C038F0C7
:101EF000180E396EFCEC06F07F0EF66E020EF76ED1
:101F0000070E386EFAEC05F0010E306E0E0102D0AD
:101F1000332A83D7305208E1880EF66E020EF76E30
:101F2000000127EC03F00E01010E2F6E000120D6F8
:101F300067D0100E346E325019082AE3100E345C4C
:101F4000356EF2CF36F0F29E756A34C074FF7F9C16
:101F50007F9E7F80735036BEF28E376E35C038F06C
:101F6000180E396EFCEC06F0A80EF66E020EF76E37
:101F7000030E386EFAEC05F037C038F0180E396EE3
:101F8000FCEC06F00A0E9EA8FED7AD6E322AD3D71F
:101F9000B00EF66E020EF76E27EC03F037EC09F088
:101FA00001C031F031502F0825E23150390822E3C9
:101FB000300E315E100E3124356EF250006EF29EFE
:101FC000756A35C074FF736A7F9C7F9E7F840F01A2
:101FD000550E7E6EAA0E7E6E7F827FB2FED77F94F4
:101FE0000050F212C00EF66E020EF76E000127ECE2
:101FF00003F006D0CA0EF66E020EF76E27EC03F061
:102000007EEF14F030C03EF00A0E3F6E8DEC05F00E
:102010000150100DF3CF31F030C03EF00A0E3F6E8C
:102020008DEC05F000503124016E1200948800D030
:10203000948600D000008B98949800D08B9694964C
:10204000D00E356EE0EC04F031C035F0E0EC04F079
:1020500032C035F0E0EC04F094980000948682A63B
:10206000FED700D000D00000948800D0948800D023
:10207000948600D000008B98949800D08B9694960C
:10208000D00E356EE0EC04F00150339001B0338097
:10209000D00E346E33B003D03450040816E3948865
:1020A00000D0948600D0000082A6FED78B9894982A
:1020B00000D08B969496D00E356EE0EC04F0015073
:1020C000339001B03380342AE5D71200010E306E10
:1020D00099DF01C030F0040E316E01C032F0A6DF8E
:1020E000010E306E8FDF01C030F0050E316E01C081
:1020F00032F09CDF306A86DF01C030F0060E316EB0
:1021000001C032F093DF28C030F07CDF01C030F036
:10211000020E316E01C032F089DF27C030F072DF6D
:1021200001C030F0010E316E01C032F07FDF306A45
:1021300069DF01C030F0316A01C032F077DF120090
:102140006FEC05F028C030F0010E316EA1EC05F007
:102150003A0E9EA8FED7AD6E27C030F0010E316E4C
:10216000A1EC05F03A0E9EA8FED7AD6E26C030F069
:10217000010E316EA1EC05F0200E9EA8FED7AD6ECB
:102180000A0E9EA8FED7AD6E040EF66E000EF76E18
:1021900027EC03F0120EF66E000EF76E27EC03F03C
:1021A000220EF66E000EF76E27EC03F037EC09F006
:1021B00001C02FF02F50680A03E0050A3DE077D0F8
:1021C0002F50730831E028C030F0010E316EA1ECC1
:1021D00005F03A0E9EA8FED7AD6E27C030F0010E76
:1021E000316EA1EC05F0200E9EA8FED7AD6E0A0E52
:1021F0009EA8FED7AD6E37EC09F001C02FF02F502E
:10220000750807E12850180803E3010E282601D0BD
:10221000286A2F50640807E1285203E0010E285E67
:1022200002D0180E286ECCD751DF400EF66E000E8D
:10223000F76E27EC03F03BD02F50730831E028C035
:1022400030F0010E316EA1EC05F03A0E9EA8FED7DB
:10225000AD6E27C030F0010E316EA1EC05F0200EFE
:102260009EA8FED7AD6E0A0E9EA8FED7AD6E37ECC7
:1022700009F001C02FF02F50750807E127503A08E8
:1022800003E3010E272601D0276A2F50640807E1D7
:10229000275203E0010E275E02D03B0E276ECCD7FB
:1022A00015DF480EF66E000EF76E27EC03F07EEF9A
:1022B00014F02EEC06F0500E166E3E6A3D6A3C6A33
:1022C000010E3B6E406A160E3F6E080E416E010E07
:1022D000426E436E446A3DEC06F045EF12F05B0E31
:1022E0009EA8FED7AD6E446A4450020822E3036AFA
:1022F0004450410FE96E000E0320EA6EEACF48F029
:10230000E9CF47F037EC09F048C0EAFF47C0E9FFE2
:1023100001C0EFFF036A4450410FE96E000E032035
:10232000EA6EEFCF45F045509EA8FED7AD6E442A29
:10233000DBD75D0E9EA8FED7AD6E406A3D6A036A8C
:102340004050410FE96E000E0320EA6EEFCF3EF0E1
:10235000402A3E521AE03E502F0817E23E503908FC
:1023600014E3300E3E5C3F6E3D500A0DF3CF3DF05E
:102370003F503D26036A4050410FE96E000E032096
:10238000EA6EEFCF3EF0402AE4D73DC001F01200E4
:10239000000EF66E030EF76E27EC03F0A0DF01C00F
:1023A00030F0100EF66E030EF76E27EC03F0396A6C
:1023B0003950070813E3036A3950310F016E000EDC
:1023C000032201C03BF003C03CF089DF3CC0EAFFC0
:1023D0003BC0E9FF01C0EFFF392AEAD7180EF66EBD
:1023E000030EF76E27EC03F037EC09F001C03AF06A
:1023F0003A50790A03E0170A12E012D03E6A3D6AA9
:102400003C6A30C03BF0406A310E3F6E080E416EB0
:10241000010E426E436E446A3DEC06F001D000D0DE
:10242000220EF66E030EF76E27EC03F045EF12F066
:10243000260EF66E030EF76E27EC03F0440EF66ED2
:10244000030EF76E27EC03F05A0EF66E030EF76ECE
:1024500027EC03F09EBAFED737EC09F001C02FF04D
:102460002F50310A03E0030A09E00FD0740EF66E14
:10247000030EF76E27EC03F01CD707D0860EF66E1E
:10248000030EF76E27EC03F083D77EEF14F02EECEB
:1024900006F06D0E166E980EF66E030EF76E27ECB4
:1024A00003F0B80EF66E030EF76E27EC03F017DF9D
:1024B00001C030F030C017F0CC0EF66E030EF76E90
:1024C00027EC03F037EC09F001C031F03150790A04
:1024D00003E0170A04E004D0010E186E01D0186A58
:1024E0003E6A3D6A3C6A160E3B6E406A3F6E080EBD
:1024F000416E010E426E436E446A3DEC06F0DC0E06
:10250000F66E030EF76E27EC03F0D7EF12F02EEC09
:1025100006F06C0E166EE00EF66E030EF76E27ECEC
:1025200003F037EC09F001C030F03050790A03E0D5
:10253000170A04E004D0010E176E01D0176A3E6A34
:102540003D6A3C6A160E3B6E406A3F6E080E416E55
:10255000010E426E436E446A3DEC06F0F60EF66ED6
:10256000030EF76E27EC03F0D7EF12F0FA0EF66EBB
:10257000030EF76E27EC03F0180EF66E040EF76EDE
:1025800027EC03F0280EF66E040EF76E27EC03F02E
:102590009EBAFED737EC09F001C02FF02F50310A58
:1025A00003E0030A03E003D072D701D0B0D77EEF77
:1025B00014F0C80E306E14EC03F02EEC06F04C0E46
:1025C000166E140E176E3E6A3D6A3C6A010E3B6E33
:1025D000406A160E3F6E080E416E010E426E436E4B
:1025E000446A3DEC06F039EF16F0306A100E316E99
:1025F0003150190813E3F2CF32F0F29E756A31C000
:1026000074FF7F9C7F9E7F80735032BEF28E2F5C62
:1026100003E1010E306E02D0312AEAD730C001F05A
:1026200061EF16F0F86AD09E620ED36E9B6A646A00
:10263000046AA7960C0EAF6EA20EAC6E900EAB6E37
:10264000296A2A6A2B680F015C51800B5C6F000EAF
:102650005D6FC196C198C19A5E6B5F6B020E2F6E63
:10266000FA0E306E000114EC03F02F2E01D002D0D0
:102670000F01F6D73E0EF66E040EF76E27EC03F050
:10268000640E2F6E38EC03F003EF04F02C6AF2CFE7
:102690002FF0F29E756A210E746E7F9C7F9E7F8064
:1026A00073502FBEF28E000A2EE0F2CF30F0F29E71
:1026B000756A210E746E7F9C7F9E7F80735030BE42
:1026C000F28E030820E3F2CF2FF0F29E756A210EFE
:1026D000746E7F9C7F9E7F8073502FBEF28E076E3C
:1026E000F2CF2FF0F29E756A210E746E7F9C7F9E52
:1026F0007F8073502FBEF28E086E0750020802E1F1
:102700000AEC06F002D0076A086A55EC07F0075099
:10271000020802E1DFEF07F01FEF08F059EF08F0C1
:1027200083EC08F0015235E083EC08F001C02DF095
:102730002B50FF0807E12DC02FF0D5EC08F001C0A9
:102740002BF00DD02DC02FF0D5EC08F02B50015CF4
:1027500006E22DC02FF0D5EC08F001C02BF0072CBD
:1027600001D003D00750030814E1020E076E980E43
:10277000F66E000EF76E0E0E386EFAEC05F02DC0F8
:1027800038F0180E396EFCEC06F00A0E9EA8FED743
:10279000AD6E938281A20BD0072C09D04A0EF66E43
:1027A000040EF76E27EC03F0076A55EC07F09EAABB
:1027B000ADD037EC09F001C02EF00752D8A49ED05E
:1027C0002E50310A11E0030A18E0010A1FE0070A3F
:1027D00026E0010A2DE0030A34E0010A3AE00F0A7C
:1027E00041E0010A41E042D0540EF66E040EF76E4D
:1027F00027EC03F042EF09F081D0680EF66E040E6C
:10280000F76E27EC03F084EF0AF078D0780EF66EBE
:10281000040EF76E27EC03F0B5EF0BF06FD0880EC7
:10282000F66E040EF76E27EC03F0F5EF0BF066D0B2
:10283000980EF66E040EF76E27EC03F061EF0DF0C4
:102840005DD0A00EF66E040EF76E27EC03F078D480
:1028500055D0A80EF66E040EF76E27EC03F0010EAD
:10286000076E4CD0E5D54AD081D648D0B00EF66E72
:10287000040EF76E27EC03F0CE0EF66E040EF76E24
:1028800027EC03F0E80EF66E040EF76E27EC03F06B
:10289000060EF66E050EF76E27EC03F01E0EF66EB2
:1028A000050EF76E27EC03F0300EF66E050EF76E90
:1028B00027EC03F0440EF66E050EF76E27EC03F0DE
:1028C000580EF66E050EF76E27EC03F0640EF66EEA
:1028D000050EF76E27EC03F06E0EF66E050EF76E22
:1028E00027EC03F0780EF66E050EF76E27EC03F07A
:1028F000880EF66E050EF76E27EC03F0072C06D057
:10290000A00EF66E050EF76E27EC03F0366A160E73
:10291000356E60AE1FD0065204E1F10E6F146F6E7B
:1029200004D0E00E72141009726E0B6A065208E0B1
:10293000099071BC0980719C60501F0B0A6E09D010
:10294000099071BE0980719E60A403D00A6A60B0CC
:102950000A2A93D00F0130AF1FD0065205E1F10EC5
:102960006F140A096F6E04D0E00E72141109726EB2
:10297000010E0B6E065208E0099071BC0980719C33
:1029800030511F0B0A6E07D0099071BC0980719CF1
:102990003051070B0A6E70D00E0180AF10D07DB59C
:1029A0000ED0E00E72141209726E020E0B6E0990B8
:1029B00071BC0980719C80511F0B0A6E5DD090AF75
:1029C00010D07DB70ED0E00E72141309726E030E94
:1029D0000B6E099071BC0980719C90511F0B0A6E9F
:1029E0004BD0A0AF10D07DB90ED0E00E72141409F8
:1029F000726E040E0B6E099071BC0980719CA0511F
:102A00001F0B0A6E39D0B0AF10D07DBB0ED0E00ED8
:102A100072141509726E050E0B6E099071BC098057
:102A2000719CB0511F0B0A6E27D0C0AF10D07DBD76
:102A30000ED0E00E72141609726E060E0B6E09901F
:102A400071BC0980719CC0511F0B0A6E15D0D0AFAC
:102A500010D07DBF0ED0E00E72141709726E070EF3
:102A60000B6E099071BC0980719CD0511F0B0A6ECE
:102A700003D0000E016E85D0000165500F0B156E5E
:102A80000C9065BC0C800C9262B60C82000E0CB2ED
:102A9000010E3A6E0F0E456E640E446E3AC046F05B
:102AA00071EC0CF003C010F002C00FF001C00EF08A
:102AB00000C00DF00F0E396E660E386E376A155075
:102AC000375C14E238C0E9FF39C0EAFFEFCF3CF0D1
:102AD00036C0EAFF35C0E9FF3CC0EFFF352AD8B465
:102AE000362A382AD8B4392A372AE9D70B500FE0CA
:102AF000010A14E0030A17E0010A1AE0070A1DE0C0
:102B0000010A20E0030A23E0010A26E029D0609EA2
:102B1000065202E0779201D0779022D00F01309FC9
:102B2000779200011DD00E01809F7792000118D08E
:102B30000E01909F7792000113D00E01A09F779213
:102B400000010ED00E01B09F7792000109D00E0156
:102B5000C09F7792000104D00E01D09F77920001B0
:102B60000C9477BE0C84779E065204E1F10E6F142C
:102B70006F6E04D0E00E72141009726E010E016EB9
:102B80000E010152D8B4CCD00D50140806E10E52FB
:102B900004E10F5202E110520BE00D2CC1D00E5295
:102BA000D8A4BED00F52D8A4BBD01052D8A4B8D04D
:102BB000C20EF66E050EF76E130E386E0001FAECBB
:102BC00005F016C038F0180E396EFCEC06F0200E39
:102BD0009EA8FED7AD6E17C038F0180E396EFCEC0B
:102BE00006F0200E9EA8FED7AD6E18C038F0180E65
:102BF000396EFCEC06F0200E9EA8FED7AD6E19C013
:102C000038F0180E396EFCEC06F0200E9EA8FED7A8
:102C1000AD6E1AC038F0180E396EFCEC06F0200EBE
:102C20009EA8FED7AD6E1BC038F0180E396EFCECB6
:102C300006F0200E9EA8FED7AD6E1CC038F0180E10
:102C4000396EFCEC06F0200E9EA8FED7AD6E1DC0BE
:102C500038F0180E396EFCEC06F0200E9EA8FED758
:102C6000AD6E0A0E9EA8FED7AD6E1650500801E15B
:102C7000A0D41650610816E11750320813E1020E75
:102C8000076E980EF66E000EF76E0E0E386EFAECAA
:102C900005F0386A180E396EFCEC06F00A0E9EA894
:102CA000FED7AD6E1650730806E1C80E306E14ECF8
:102CB00003F055EC07F01650630831E117C02FF010
:102CC00094D4012C26D00750020808E1F00EF66ECD
:102CD000050EF76E27EC03F0076A12D0072C08D018
:102CE000080EF66E060EF76E27EC03F0076A08D0A2
:102CF000120EF66E060EF76E27EC03F0010E076E4D
:102D0000020E2F6E960E306E14EC03F02F2EFAD7B3
:102D100006D01A0EF66E060EF76E27EC03F00E01C3
:062D20000001F5D40300E0
:020000040030CA
:0E00000015C87E7C008991000FC00FE00F40F4
:00000001FF
;PIC18F25K80
;CRC=AB91  CREATED="08-cze-16 09:08"
